:020000020000FC
:040000000C947200EA
:1000E4000FEF0DBF01E20EBF00EF00930A010FEF07
:1000F40000BB01B9002701BB02B908E381D09AD043
:10010400B5D008E37DD096D0A8D008E379D092D0BA
:1001140008E376D08FD008E073D08CD001E070D0A3
:1001240089D006E06DD086D00EE06AD083D000E39B
:1001340067D080D055270AC099D098D097D096D050
:1001440095D001E05DD076D0552703C000E150176B
:1001540099F33FEE222730930B010FEF0A95F1F745
:10016400009109010F700F3061F031E01127402F29
:10017400432319F40DD00C94A8001395330F0C9459
:10018400B900233019F30894331F23950C94AD0060
:10019400233061F0133089F0012F000F010F020F9B
:1001A4000395602F00E3602B0C94F50001E0010F30
:1001B400602F00E4602B0C94F500203049F02130CE
:1001C40071F00FE0602F6C5000E2602B0C94F5008E
:1001D4000EE0602F645000E2602B0C94F5000027C1
:1001E400602F00E3602B00910901F02E062F13D03D
:1001F40021D053953BD0009109010F15D9F30895EF
:1002040001BB0000169A00000000000016980000D0
:1002140000000000089501BB179A000000000000D0
:10022400169A00000000000016980000000000006C
:10023400179808950F93002700BB01BB159A00007F
:10024400169A0000000000000FB1169807FDF7CFC2
:1002540015980FEF00BB0F9108958F939F939FE024
:100264008CE90197F1F79F918F910895F6DFF5DFFF
:08027400F4DFF3DFF2DF08956F
:00000001FF
