:020000020000FC
:100000000C9406000C9419000C9423000FEF0DBF04
:1000100001E20EBF0FEF08B907B90BB900270AB903
:100020000AE0009369000DB303600DBB78940C9453
:100030002D000F930FB70F9308B10A9508B90F91D0
:100040000FBF0F910BC00F930FB70F9308B103951C
:1000500008B90F910FBF0F9101C0FFCF2227139551
:10006000143669F0332723952436C1F3442733959A
:100070003436C1F34830D1F300004395FBCF11274C
:080080002227332744271895BD
:00000001FF
