:020000020000FC
:1000000008E011E023E032E0A0E0B2E060E0442745
:1000100066274C9351E0CBEFD1E2CDBFDEBF0C831E
:100020001B832A83398301D0FFCFCF93DF93CDB7D2
:10003000DEB72497DEBFCDBF750F861F0C831B83F1
:100040003A8329830C811B812A813981051741F468
:10005000650F6C932496DEBFCDBFDF91CF910895DD
:100060000C811B812A813981051BDFDF0C811B81FB
:1000700029813A81052FD9DF0C8119812B813A81A1
:06008000051BD3DFE7CFF2
:00000001FF
