:020000020000FC
:0A0000005AE0F52E55270C9472000B
:04005C000C94A80058
:04000C000C9414013B
:1000E4000FEF0DBF01E20EBF0FEF00BB01B90027F8
:1000F40001BB02B908E3A4D0BDD0D8D008E3A0D096
:10010400B9D0CBD008E39CD0B5D008E399D0B2D015
:1001140008E096D0AFD001E093D0ACD006E090D008
:10012400A9D00EE08DD0A6D01FEF17B9112718B9AA
:100134001AB91BB910E2109369001DB314601DBBFA
:1001440078940C94F4007F9D702D08954FB74F93CD
:10015400DF93CF939F938F9380910002909101023C
:1001640001968D3043E0940791F5EDDF1F936627E8
:10017400172F6A2C372F9A2C24E68824121B680820
:1001840022F06395312F962CF9CF243621F02A30B2
:1001940041F0213061F0C62E2AE0132F692C662726
:1001A400EDCFD62E21E0132F692C6627E7CFE62E5C
:1001B40066271F9140E3C40ED40EE40E1DD07727AA
:1001C400AA24C0E0D2E011271993188304C08093B5
:1001D4000002909301028F919F91CF91DF914F91F3
:1001E4004FBF189510E014BD12E015BD11E0109337
:1001F4006E0078940C94210101E022D03BD00C2DA8
:100204002AD038D00D2D27D035D00E2D24D032D081
:1002140002E721D02FD00FE21ED02CD003E71BD051
:1002240029D008955F935FB75F93B39454E0B516F4
:1002340011F4BB2473955F915FBF5F911895FFCF55
:1002440001BB0000169A0000000000001698000090
:1002540000000000089501BB179A00000000000090
:10026400169A00000000000016980000000000002C
:10027400179808950F93002700BB01BB159A00003F
:10028400169A0000000000000FB1169807FDF7CF82
:1002940015980FEF00BB0F9108958F939F939FE0E4
:1002A4008CE90197F1F79F918F910895F6DFF5DFBF
:0802B400F4DFF3DFF2DF08952F
:00000001FF
