:020000020000FC
:040000000C947200EA
:1000E4000FEF0DBF01E20EBF00EF00930A010FEF07
:1000F40007B9002708B90FEF00BB01B9002701BBFE
:1001040002B908E3B0D1C9D1E4D108E3ACD1C5D177
:10011400D7D108E3A8D1C1D108E3A5D1BED108E065
:10012400A2D1BBD101E09FD1B8D106E09CD1B5D119
:100134000EE099D1B2D1332477276624772488241A
:10014400662700C03FEE222730930B010FEF0A957C
:10015400F1F7009109010F700F3061F031E01127C0
:10016400402F432319F40DD00C94A4001395330F9E
:100174000C94B200233031F30894331F23950C946C
:10018400A6008F939F93233099F1133071F1012FBF
:10019400000F010F020F0395702F50E3752B603091
:1001A40040E0F42E89F4E0E0F2E09080A1804AE09F
:1001B4009B9C602C712CAB9C701C4427600E7B1C98
:1001C400608271820C943401E2E0F2E09080A180BC
:1001D4004AE09B9C602C712CAB9C701C4427600EE5
:1001E4007B1C608271820C943401213011F10895DA
:1001F4000AE0010F0A3029F00B3061F00C3099F05D
:10020400089541E0F42E7DE0E72E50E2752B61E085
:100214000C94340141E0F42E7BE0E72E50E2752B80
:1002240061E00C9434017DE050E3752B61E00C94A3
:10023400420140E0F42E0027702F50E3752B60300C
:1002440019F6E0E0F2E09080A1804AE09B9C602CEB
:10025400712CAB9C701C4427600E7B1C60827182E5
:100264000C94340140900901EAD0072F07D115D12D
:100274003394009109010415E1F39F918F9108953E
:1002840041E0F41651F14BE0E41629F04DE0E41698
:1002940099F00C943401C0E0D2E0E2E0F2E0908006
:1002A400A18068807980690C7A1C68827982E4E094
:1002B400F2E06082718271C0C0E0D2E0E2E0F2E07C
:1002C4009080A1806880798069187A086882798230
:1002D400E4E0F2E06082718260C0B1D00DE3CED080
:1002E400DCD03394ACD009E6C9D0D7D03394A7D0AE
:1002F40003E6C4D0D2D03394A2D00FE6BFD0CDD081
:1003040033949DD002E7BAD0C8D0339498D002E792
:10031400B5D0C3D0339493D005E6B0D0BED03394D7
:100324008ED003E6ABD0B9D0339489D004E7A6D0FD
:10033400B4D0339484D005E6A1D0AFD033947FD029
:1003440008E79CD0AAD033947AD000E797D0A5D000
:10035400339475D002E792D0A0D0339470D005E6E0
:100364008DD09BD033946BD003E788D096D0339450
:1003740066D003E783D091D0339461D009E67ED070
:100384008CD033945CD00FE679D087D0339457D097
:100394000EE674D082D03394A2C051D00DE36ED057
:1003A4007CD03394E4E0F2E09080A18040E00C94AF
:1003B400E1013CD00C94EC0139D00C94F60144E6F4
:1003C400C42E40E0B92CBC184395BC14E4F740306B
:1003D40081F7B92C4AE0C42E40E0BC184395BC1404
:1003E400E4F7403049F7B92C4B2D20D00C9400028F
:1003F4001DD00C940B021AD00C94150244E6C42EA2
:1004040040E0BA2CBC184395BC14E4F7403081F7A3
:10041400BA2C4AE0C42E40E0BC184395BC14E4F75F
:10042400403049F7BA2C4B2D01D059C008D0742F55
:1004340050E3752B072F22D030D03394089540E138
:10044400341621F040E2341639F0089517981598BF
:1004540000EC09D022D008951798159801E003D034
:100464001CD03324089501BB0000169A000000003C
:1004740000001698000000000000089501BB179AC0
:10048400000000000000169A00000000000016980A
:10049400000000000000179808950F93002700BB88
:1004A40001BB159A0000169A0000000000000FB16D
:1004B400169807FDF7CF15980FEF00BB0F9108951D
:1004C4008F939F939FE08CE90197F1F79F918F9110
:1004D4000895F6DFF5DFF4DFF3DFF2DF0895FFCFF1
:00000001FF
