:020000020000FC
:0C0000000C9472000C9499000C94DD002C
:1000E4000FEF0DBF01E20EBF0FEF0DB900E000935B
:1000F4009A00002700939B0001E00093910001E225
:100104000093900078940FEF07B900270AB90BB950
:100114000AE0009369000DB303600DBB789425E0F9
:10012400442755276627112738EC0C94DC000F93DD
:100134000FB70F9355274395483C49F066275395CD
:100144005436C1F36233D1F300006395FBCF4427E7
:1001540055276627143619F1131751F1120F18B9E0
:1001640010939A00002700939B00120F18B9109364
:100174009A00002700939B00120F18B910939A005D
:10018400002700939B00120F18B910939A000027C0
:1001940000939B00312F0F910FBF0F91189514E618
:1001A40010939A00002700939B00F5CF38EC02C00F
:1001B40038ECF1CFFFCF0F930FB70F93552743952B
:1001C400483C49F0662753955436C1F36233D1F362
:1001D40000006395FBCF442755276627103001F1B3
:1001E400131731F3121B18B910939A0000270093C8
:1001F4009B00121B18B910939A00002700939B00D0
:10020400121B18B910939A00002700939B00121B2D
:1002140018B910939A00002700939B00312FBBCF8D
:0E022400112710939A00002700939B00B4CF7F
:00000001FF
