:020000020000FC
:040000000C9430002C
:10005C000C9438000FEF0DBF01E20EBF0FEF07B984
:10006C00332734C00FB70F93DF93CF939F938F93A6
:10007C008091000290910102019684380EE1900764
:10008C0021F443954C33D9F00BC08093000290932C
:10009C0001028F919F91CF91DF910F910FBF189516
:1000AC00232F220F220F220F220F220F220F242B7D
:1000BC0028B9C0E0D2E0002709930883EACF44278F
:1000CC003395343009F0ECCF3327EACF40E048B910
:1000DC00C0E0D2E000270993088300E004BD02E0F1
:0C00EC0005BD01E000936E007894FFCF8A
:00000001FF
