:020000020000FC
:0E0000006AE310E320E330E340E30C943000A9
:10005C000C9467000FEF0DBF01E20EBF0FEF00BB5A
:10006C0001B9002701BB02B908E380D099D0B4D004
:10007C0008E37CD095D0A7D008E378D091D008E3E2
:10008C0075D08ED008E072D08BD001E06FD088D0C4
:10009C0006E06CD085D00EE069D082D000E366D04B
:1000AC007FD0032F6ED07CD0042F6BD079D0062F4D
:1000BC0068D076D0012F65D073D0022F62D070D06B
:1000CC0047C00FB70F93DF93CF939F938F9380917C
:1000DC0000029091010201968D3003E0900721F40B
:1000EC0013951A3321F10BC08093000290930102F7
:1000FC008F919F91CF91DF910F910FBF189501E0D8
:10010C0035D04ED0042F3DD04BD0032F3AD048D011
:10011C00062F37D045D0022F34D042D0012F31D00A
:10012C003FD0C0E0D2E0002709930883E1CF10E371
:10013C002395263309F0E3CF20E333953A3309F0C6
:10014C00DECF30E34395463309F0D9CF40E3D7CF28
:10015C00C0E0D2E000270993088300E004BD02E070
:10016C0005BD01E000936E007894FFCF01BB000049
:10017C00169A000000000000169800000000000015
:10018C00089501BB179A000000000000169A0000A9
:10019C000000000016980000000000001798089559
:1001AC000F93002700BB01BB159A0000169A0000A4
:1001BC00000000000FB1169807FDF7CF15980FEF50
:1001CC0000BB0F9108958F939F939FE08CE901974B
:1001DC00F1F79F918F910895F6DFF5DFF4DFF3DFF0
:0401EC00F2DF0895A1
:00000001FF
