:020000020000FC
:0C0000000C9430000C949F000C94A8009D
:10005C000C941C030FEF0DBF01E20EBF00EF0093D9
:10006C000A010FEF07B9002708B90FEF00BB01B960
:10007C00002701BB02B908E38FD3A8D3C3D308E38D
:10008C008BD3A4D3B6D308E387D3A0D308E384D30C
:10009C009DD308E081D39AD301E07ED397D306E0B9
:1000AC007BD394D30EE078D391D30FEF0DB900E04E
:1000BC0000939A00002700939B0001E000939100AD
:1000CC0001E200939000789400270AB90BB90AE07A
:1000DC00009369000DB303600DBB7894BB24CC2452
:1000EC00992466245527DD24E0E0F2E0A4E6B2E092
:1000FC0001D034C101E050D369D303E558D366D3A2
:10010C0004E555D363D301E452D360D304E54FD354
:10011C005DD300E24CD35AD30EE449D357D305E553
:10012C0046D354D30DE443D351D30AE340D34ED337
:10013C0008950F930FB70F9341E0242E0F910FBF2B
:10014C000F9118950F930FB70F9341E0242E0F9139
:10015C000FBF0F911895C39401E01ED337D3EC2C2D
:10016C0040E3E42A03E523D331D34AE0C41641F03B
:10017C000E2D1DD32BD300E21AD328D37724089548
:10018C0001E315D323D300E312D320D30C94C10085
:10019C00C39401E001D31AD3EC2C40E3E42A03E529
:1001AC0006D314D34AE0C41631F10E2D00D30ED36E
:1001BC0000E2FDD20BD304E5FAD208D30FE4F7D258
:1001CC0005D300E2F4D202D303E5F1D2FFD249E029
:1001DC00C416C9F0CB1441F0E3940E2DE8D2F6D23C
:1001EC0000E2E5D2F3D2089501E3E1D2EFD200E2CE
:1001FC00DED2ECD2089501E3DAD2E8D200E3D7D212
:10020C00E5D20C94DE0001E3D2D2E0D200E3CFD2EF
:10021C00DDD20C94F60001E0BFD2D8D2A4E6B2E055
:10022C00ED9040E3E42A0E2DC2D2D0D2ED9040E303
:10023C00E42A0E2DBCD2CAD2ED9040E3E42A0E2D56
:10024C00B6D2C4D2ED9040E3E42A0E2DB0D2BED289
:10025C00ED9040E3E42A0E2DAAD2B8D2A4E6B2E087
:10026C000AE3A5D2B3D2089501E096D2AFD2E92C1D
:10027C0000E3E02A0E2D9BD2A9D20FE498D2A6D28D
:10028C000BE495D2A3D200E292D2A0D207E58FD292
:10029C009DD201E48CD29AD209E489D297D204E59A
:1002AC0086D294D208950C9495010C94A10101E08E
:1002BC0073D28CD2CB14C9F3E1900E2D78D286D2A6
:1002CC00E1900E2D74D282D2E1900E2D70D27ED29E
:1002DC00E1900E2D6CD27AD2E1900E2D68D276D2AE
:1002EC00E1900E2D64D272D2E1900E2D60D26ED2BE
:1002FC00E1900E2D5CD26AD2E1900E2D58D266D2CE
:10030C00E1900E2D54D262D2E290E290E290E29013
:10031C00E290E290E290E290E290E2900895E19017
:10032C00E190E190E190E190E190E190E190E19039
:10033C00E1900C946201E0E0F2E00C9462010C9408
:10034C0080000C94B1000C94CE000C94CE000C9454
:10035C00CE0058D201E020D239D203C05ED25DD299
:10036C005CD23FEE222730930B010FEF0A95F1F789
:10037C00009109010F700F3061F031E01127402F0F
:10038C00432319F40DD00C94B4011395330F0C9432
:10039C00C501233019F30894331F23950C94B9012C
:1003AC00233039F11330F9F0012F000F010F020F38
:1003BC00039540E0D416C1F142E0D416A9F143E014
:1003CC00D41691F144E0D416A9F1703099F10130B2
:1003DC0089F1073069F1093049F1743059F108306D
:1003EC0029F10C941E022030A9F1213089F10C94D2
:1003FC00900240E0D416F1F042E0D416D9F043E07C
:10040C00D416C1F001E0010F702F08954AE0741664
:10041C0088F4E02E00E4E02AE192739477270C94A0
:10042C00840277240C944D020C9422020C945502F5
:10043C000C944E020C944D02E02E40E0D416D1F0F8
:10044C0042E0D41649F043E0D41669F00C94200233
:10045C000C9474020C945F0248E0741658F7802ECA
:10046C0073940C9447024AE0741620F7902E739400
:10047C000C94470248E07416E8F6B02E73940C9472
:10048C00470200E3E02A7727A3940C948402089592
:10049C000250402F440F040F070FA394B7CF025004
:1004AC00402F440F040F070F0395A394AFCF0C9468
:1004BC00390240E0D41659F342E0D41641F343E03C
:1004CC00D41629F300E2E02EE19273947727A394DB
:1004DC000C9484020C944D020C94320200E0E02E39
:1004EC0041E0D416A1F240E0D41621F242E0D41639
:1004FC0099F343E0D416D9F20C942002009109012F
:10050C00F02E0E2D54D162D17DD1009109010F1521
:10051C00D9F3089540E0D41689F041E0D41621F1C6
:10052C0042E0D416A9F143E0D416D1F044E0D4163D
:10053C0019F045E0D416B1F0AA24089540E0A416B1
:10054C0059F040E0B41641F041E0B41629F0D394D0
:10055C00772401DE0C94A2024AE0B42E0C94AD0276
:10056C000C94E4020C94FF0200E24AE0741621F0B1
:10057C00019373940C94BA02772401F0CB142CF0F1
:10058C00D394CC2405DE0C94A202E5DD0C94A202DB
:10059C0040E0A41679F040E0841661F08D92772447
:1005AC00CB142CF0D394CC2436DE0C94A202F0DDC8
:1005BC000C94A2024AE0842E0C94D40240E0A416BF
:1005CC0081F040E0941669F041E0941651F046E059
:1005DC00941658F47724D394AA2446DE18D00C949D
:1005EC00A20242E0942E0C94F00245E0942E0C945E
:1005FC00F00213D112D111D110D141E0541711F0E6
:10060C00542F089555272224552466240895AA248E
:10061C0000E004BD02E005BD01E000936E0078949B
:10062C00089503E008B9EED00C9439036FB76F93BB
:10063C00DF93CF939F938F9380916E0290916F0273
:10064C00019641E05417D1F141E0341661F081304C
:10065C0060E0960731F38D326AE0960711F3883526
:10066C0064E19607F1F2002708B984386EE1960729
:10067C0091F441E0541749F044E0D41611F141E0F3
:10068C005416A1F045E0D416C9F1CEE6D2E000270D
:10069C000993088304C080936E0290936F028F912C
:1006AC009F91CF91DF916F916FBF18956ED0A394EE
:1006BC00A9145CF322245524AA24662466D00C9435
:1006CC002A03A39444E0A416B4F0D394E0E0F2E03F
:1006DC00A4E6B2E0E190E190E190E190E190E1904C
:1006EC00E190E190E190E190CC24AA248D90C39408
:1006FC0066240C944B03B8DD0C944B0341E0541767
:10070C0021F241E0641609F038D0A394A81494F1B6
:10071C00CB14ECF0CB1401F0E0E0F2E0A4E6B2E094
:10072C00E190E190E190E190E190E190E190E19035
:10073C00E190E190CC24C394AA248D9041E024163E
:10074C0011F00C944B0341E0542E0C944B03C394C6
:10075C00AA248D90ACDDE190E190E190E190E190E4
:10076C00E190E190E190E190E19041E0241659F3A1
:10077C000C944B039CDD0C944B0341E0642E342E03
:10078C004EE1442E40929A00089540E0342E40E011
:10079C00442E40929A00089501BB0000169A000066
:1007AC00000000001698000000000000089501BB36
:1007BC00179A000000000000169A000000000000CC
:1007CC001698000000000000179808950F9300275A
:1007DC0000BB01BB159A0000169A00000000000037
:1007EC000FB1169807FDF7CF15980FEF00BB0F91BF
:1007FC0008958F939F939FE08CE90197F1F79F9158
:10080C008F910895F6DFF5DFF4DFF3DFF2DF089563
:10081C00F9DFF8DFF7DFF6DF0895FADFF9DFF8DF4D
:06082C00F7DFF6DF08957E
:00000001FF
