:020000020000FC
:10000000E0E0F2E00AE0F02E01E0C02E03E0ABE019
:10001000B2E00C93ACE0B2E0FC92C9EFD1E2CDBF0C
:10002000DEBFC9825A825B825C825D825E822E81E3
:100030007D816C815B819A818981F21698F12083A0
:100040000FD0B1908B9D802C912C9B9D901CA11C5E
:10005000580D691D7A1D88249924AA242395EDCF73
:10006000CF93DF93CDB7DEB72597DEBFCDBF098332
:100070002A83CB82CC825D82D980EA801B8181E099
:1000800090E0E11648F08D9D302D412D9D9D401D45
:10009000832F942F1395F5CF2596DEBFCDBFDF912B
:0600A000CF910895FFCF8F
:00000001FF
